:020000040800F2
:1000000000000220498F0008998F0008998F00088E
:10001000998F0008998F0008998F00080000000050
:10002000000000000000000000000000E90D0008D2
:10003000998F000800000000F1100008531100081B
:10004000998F0008998F0008998F0008998F0008F0
:10005000998F0008998F0008998F0008998F0008E0
:10006000998F0008998F0008998F0008998F0008D0
:10007000998F0008998F0008998F0008998F0008C0
:10008000998F0008998F0008998F000800000000E0
:10009000000000000000000000000000998F000830
:1000A000998F000879430008998F0008998F0008FC
:1000B000998F0008998F0008998F0008998F000880
:1000C000998F0008998F0008998F0008998F000870
:1000D000998F0008998F0008998F00080000000090
:1000E000998F0008998F0008998F00080000000080
:1000F000000000000000000000000000998F0008D0
:1001000000000000998F0008998F0008998F00085F
:1001100000000000000000000000000000000000DF
:10012000998F0008998F0008998F0008998F00080F
:10013000998F00080000000000000000000000008F
:10014000000000000000000000000000998F00087F
:10015000998F0008998F0008998F0008998F0008DF
:10016000998F0008998F000800000000000000002F
:10017000000000000000000000000000000000007F
:1001800000000000998F000800000000000000003F
:08019000998F0008998F000807
:1001C0000348044B834202D0034B03B118477047E6
:1001D000D8010020D8010020000000000548064991
:1001E0000B1AD90F01EBA301491002D0034B03B145
:1001F00018477047D8010020D801002000000000F7
:1002000010B5064C237843B9FFF7DAFF044B13B15E
:100210000448AFF300800123237010BDD8010020F3
:10022000000000009C8F000808B5044B1BB1044976
:100230000448AFF30080BDE80840CFE700000000AD
:10024000DC0100209C8F000880B485B000AF03461D
:10025000FB71084BFB60FB681B68FA79012101FA0E
:1002600002F21A43FB681A6000BF1437BD465DF8FE
:10027000047B70473038024080B485B000AF03463D
:10028000FB71084BFB60FB681B68FA79012101FADE
:1002900002F21A43FB681A6000BF1437BD465DF8CE
:1002A000047B70473438024080B485B000AF034609
:1002B000FB71084BFB60FB681B68FA79012101FAAE
:1002C00002F21A43FB681A6000BF1437BD465DF89E
:1002D000047B70474038024080B485B000AF0346CD
:1002E000FB71084BFB60FB681B68FA79012101FA7E
:1002F00002F21A43FB681A6000BF1437BD465DF86E
:10030000047B70474438024080B58EB000AF7860FF
:100310000023FB620023BB627B68002B22D00823F2
:10032000DB437A689A421BD808227B6813447B60BF
:100330007B6803F00703002B14D07B6803F00703EE
:10034000C3F108037B627B6ADB437A689A4204D874
:100350007A687B6A13447B6004E000237B6001E0E1
:1003600000237B6001F076FF784B1B68002B01D1E6
:1003700000F0D1F97B68002BC0F2D1807B68002BA4
:1003800000F0CD80724B1B687A689A4200F2C780F9
:10039000704B3B636F4B1B687B637B6B6E4A934276
:1003A00005D37B6B6D4A934201D8012300E0002303
:1003B000002B27D14FF0500383F31188BFF36F8FC9
:1003C000BFF34F8FFB6100BFFEE77B6B3B637B6B33
:1003D0001B687B637B6B604A934205D37B6B5F4AF0
:1003E000934201D8012300E00023002B0AD14FF0F3
:1003F000500383F31188BFF36F8FBFF34F8FBB613F
:1004000000BFFEE77B6B5B687A689A4203D97B6B1F
:100410001B68002BD9D14D4B1B687A6B9A427ED05A
:100420003B6B1B6808221344FB62FB6A4A4A9342F7
:1004300005D3FB6A494A934201D8012300E0002317
:10044000002B0AD14FF0500383F31188BFF36F8F55
:10045000BFF34F8F7B6100BFFEE77B6B1A683B6B7E
:100460001A607B6B5B687A689A420AD94FF0500336
:1004700083F31188BFF36F8FBFF34F8F3B6100BFD2
:10048000FEE77B6B5A687B68D21A08235B009A42AE
:1004900023D97A6B7B6813443B623B6A03F0070302
:1004A000002B0AD04FF0500383F31188BFF36F8FF6
:1004B000BFF34F8FFB6000BFFEE77B6B5A687B6822
:1004C000D21A3B6A5A607B6B7A685A603B6B1A6837
:1004D0003B6A1A603B6B3A6A1A601D4B1A687B6B69
:1004E0005B68D31A1A4A1360194B1A681C4B1B68B5
:1004F0009A4203D2164B1B68194A13607B6B5B68E8
:10050000BB627B6B5B6843F000427B6B5A607B6B2A
:1005100000221A60134B1B680133124A136001F06A
:10052000A7FEFB6A03F00703002B0AD04FF050032D
:1005300083F31188BFF36F8FBFF34F8FBB6000BF92
:10054000FEE7FB6A18463837BD4680BDFCA1002097
:1005500000A20020F4A10020F4010020F3A100205B
:1005600004A2002008A2002080B588B000AF786007
:100570007B68FB617B68002B61D008235B42FA69D2
:100580001344FB61FB69BB61BB692F4A934205D3EE
:10059000BB692E4A934201D8012300E00023002BBF
:1005A0000AD14FF0500383F31188BFF36F8FBFF36D
:1005B0004F8F7B6100BFFEE7BB695B68002B0ADBE6
:1005C0004FF0500383F31188BFF36F8FBFF34F8F4A
:1005D0003B6100BFFEE7BB691B68002B0AD04FF0F0
:1005E000500383F31188BFF36F8FBFF34F8FFB600E
:1005F00000BFFEE7BB695B68DB0F03F00103DBB202
:10060000002B1CD0BB691B68002B18D1BB695B6831
:1006100023F00042BB695A6001F01CFEBB695A68B6
:100620000B4B1B6813440A4A1360B86900F0CEF8FC
:10063000084B1B680133074A136001F019FE00BF25
:100640002037BD4680BD00BFF4010020F3A100208B
:1006500000A200200CA2002080B400AF034B1B6856
:100660001846BD465DF8047B704700BF00A200201D
:1006700080B400AF034B1B681846BD465DF8047B91
:10068000704700BF04A2002080B400AF044B1B6879
:10069000044A136000BFBD465DF8047B704700BF8D
:1006A00000A2002004A2002080B400AF00BFBD461D
:1006B0005DF8047B704780B584B000AF7860396026
:1006C0000023FB607B68002B09D04FF0FF327B6872
:1006D000B2FBF3F33A689A4201D9012300E0002308
:1006E000002B13D17B683A6802FB03F31846FFF72F
:1006F0000BFEF860FB68002B08D07B683A6802FBB1
:1007000003F31A460021F86803F0F0FFFB6818466F
:100710001037BD4680BD80B485B000AF4FF4204394
:10072000BB60254BFB60FB6803F00703002B0CD07C
:10073000FB680733FB60FB6823F00703FB60BA68C4
:10074000FB68D31A1C4A1344BB60FB681B4A136046
:100750001A4B00225A60FA68BB6813447B60082277
:100760007B689B1A7B607B6823F007037B607B6858
:10077000134A1360124B1B6800225A60104B1B680F
:1007800000221A60FB683B603B687A68D21A3B68BB
:100790005A600B4B1A683B681A603B685B68094AF1
:1007A00013603B685B68084A136000BF1437BD469E
:1007B0005DF8047B704700BFF4010020F4A1002025
:1007C000FCA1002004A2002000A2002080B487B079
:1007D00000AF7860364B7B6102E07B691B687B6110
:1007E0007B691B687A689A42F7D87B69304A9342E2
:1007F00017D07B692F4A934205D37B692E4A9342D7
:1008000001D8012300E00023002B0AD14FF0500350
:1008100083F31188BFF36F8FBFF34F8FFB6000BF6F
:10082000FEE77B693B617B695B683A6913447A68E0
:100830009A4208D17B695A687B685B681A447B6975
:100840005A607B697B607B683B617B685B683A6967
:100850001A447B691B689A4218D17B691A68174B46
:100860001B689A420DD07B685A687B691B685B687D
:100870001A447B685A607B691B681A687B681A6037
:1008800008E00E4B1A687B681A6003E07B691A68FF
:100890007B681A607A697B689A4202D07B697A68C1
:1008A0001A6000BF1C37BD465DF8047B704700BF6F
:1008B000F4A10020F4010020F3A10020FCA10020FD
:1008C00080B586B000AF786000233B610023FB60F9
:1008D0004FF0FF33BB6001F0BDFC224B1B687B6116
:1008E0007B69002B1BD015E03B6901333B617B69C1
:1008F0005B68FA689A4202D27B695B68FB607B693D
:100900005B68BA689A4202D97B695B68BB607B69A5
:100910001B687B61144B1B687A699A42E4D101F031
:10092000A7FC7B68FA685A607B68BA689A607B6843
:100930003A69DA6000F082FB0C4B1A687B681A6037
:100940000B4B1A687B685A610A4B1A687B689A617C
:10095000094B1A687B681A6100F0A0FB00BF1837CA
:10096000BD4680BDF4A10020FCA1002000A2002013
:1009700008A200200CA2002004A2002080B400AF36
:10098000094B00221A60094B00221A60084B002212
:100990001A60084B00221A60074B00221A6000BF41
:1009A000BD465DF8047B7047FCA1002000A200203A
:1009B00004A2002008A200200CA2002080B582B072
:1009C00000AF0346FB71FB79002B11D1294B1A783C
:1009D000FB791146184600F04FF8264B1B78012B87
:1009E00014BF01230023DBB21A46224B1A703DE0EC
:1009F000FB79012B11D11F4B5A78FB791146184610
:100A000000F03AF81B4B5B78012B14BF0123002345
:100A1000DBB21A46174B5A7028E0FB79022B11D132
:100A2000144B9A78FB791146184600F025F8114BC3
:100A30009B78012B14BF01230023DBB21A460D4B18
:100A40009A7013E0FB79032B10D10A4BDA78FB790B
:100A50001146184600F010F8064BDB78012B14BF46
:100A600001230023DBB21A46024BDA7000BF0837BD
:100A7000BD4680BD10A2002080B485B000AF034603
:100A80000A46FB711346BB71104BFB60BB79012B0F
:100A90000AD1FB681B68FA790C32012101FA02F2D3
:100AA0001A43FB681A600AE0FB681B68FA790C328B
:100AB000012101FA02F2D2431A40FB681A6000BF1A
:100AC0001437BD465DF8047B704700BF140C02402C
:100AD00080B582B000AF0320FFF7B6FB084B7B6008
:100AE0007B681B6823F07F427B681A607B681B6809
:100AF00043F0AA427B681A6000BF0837BD4680BD3C
:100B0000000C024080B483B000AF78607B6803F1D2
:100B100008027B685A607B684FF0FF329A607B68FE
:100B200003F108027B68DA607B6803F108027B68E6
:100B30001A617B6800221A6000BF0C37BD465DF861
:100B4000047B704780B483B000AF78607B6800227C
:100B50001A6100BF0C37BD465DF8047B704780B456
:100B600085B000AF786039607B685B68FB603B688C
:100B7000FA685A60FB689A683B689A60FB689B68F1
:100B80003A685A60FB683A689A603B687A681A610A
:100B90007B681B685A1C7B681A6000BF1437BD460F
:100BA0005DF8047B704780B485B000AF7860396031
:100BB0003B681B68BB60BB68B3F1FF3F03D17B6838
:100BC0001B69FB600CE07B680833FB6002E0FB689C
:100BD0005B68FB60FB685B681B68BA689A42F6D288
:100BE000FB685A683B685A603B685B683A689A6081
:100BF0003B68FA689A60FB683A685A603B687A68B2
:100C00001A617B681B685A1C7B681A6000BF143726
:100C1000BD465DF8047B704780B485B000AF786056
:100C20007B681B69FB607B685B687A6892689A6086
:100C30007B689B687A6852685A60FB685B687A6870
:100C40009A4203D17B689A68FB685A607B680022ED
:100C50001A61FB681B685A1EFB681A60FB681B68F8
:100C600018461437BD465DF8047B704780B582B0E6
:100C700000AF01237B60054803F0EBFB0220FFF788
:100C80009DFE4FF47A7000F09FFDF7E7B88F0008E3
:100C900080B582B000AF01237B60054803F0D9FB2B
:100CA0000320FFF78BFE40F6B83000F08DFDF7E72C
:100CB000D48F000880B582B002AFFFF709FF03F0C0
:100CC00005FC0E4B01930023009300234FF40072A8
:100CD0000B490C4800F000FB0B4B019300230093E1
:100CE00000234FF400720949094800F0F5FA094859
:100CF00003F0AFFB01F044FAFEE700BF14A20020AE
:100D0000F08F00086D0C000818A20020F88F000872
:100D1000910C00080090000880B400AF00BFBD46F1
:100D20005DF8047B704700BF80B485B000AFF86009
:100D3000B9607A60FB68043BFB60FB684FF080722F
:100D40001A60FB68043BFB60BB6823F00102FB6890
:100D50001A60FB68043BFB600C4AFB681A60FB6886
:100D6000143BFB607A68FB681A60FB68043BFB601D
:100D7000FB686FF002021A60FB68203BFB60FB68B7
:100D800018461437BD465DF8047B7047910D000886
:100D900080B485B000AF00237B60124B1B68B3F1B9
:100DA000FF3F0AD04FF0500383F31188BFF36F8FDA
:100DB000BFF34F8FFB6000BFFEE74FF0500383F39C
:100DC0001188BFF36F8FBFF34F8FBB6000BF00BFB1
:100DD0007B68002BFCD000BF00BF1437BD465DF818
:100DE000047B704700000020064B19680868B0E8D3
:100DF000F04F80F30988BFF36F8F4FF0000080F34E
:100E00001188704724A2002000BF084800680068CD
:100E100080F308884FF0000080F3148862B661B652
:100E2000BFF34F8FBFF36F8F00DF00BF08ED00E00F
:100E300000BF80B58CB000AF654B1B68654A93421C
:100E40000AD14FF0500383F31188BFF36F8FBFF3C4
:100E50004F8F7B6200BFFEE75D4B1B685E4A93428B
:100E60000AD14FF0500383F31188BFF36F8FBFF3A4
:100E70004F8F3B6200BFFEE7584B1B68FB62FB6A6B
:100E80002C331B68564A93420AD04FF0500383F329
:100E90001188BFF36F8FBFF34F8FFB6100BFFEE779
:100EA000FB6A38331B684F4A93420AD04FF0500315
:100EB00083F31188BFF36F8FBFF34F8FBB6100BF08
:100EC000FEE70023BB60484BBB62BB6A1B78DBB20A
:100ED000FB73BB6AFF221A70BB6A1B78DBB2FB7123
:100EE000FB79DBB203F05003DAB2404B1A703F4B90
:100EF0001B78002B0AD14FF0500383F31188BFF306
:100F00006F8FBFF34F8F7B6100BFFEE7FB79DBB2D2
:100F1000DB4303F05003002B12D04FF0500383F358
:100F20001188BFF36F8FBFF34F8F3B6100BFFEE7A8
:100F3000BB680133BB60FB79DBB25B00DBB2FB71EA
:100F4000FB79DBB203F08003802BF1D0BB68082B68
:100F500003D1274B00221A6004E0BB68C3F10703EA
:100F6000234A1360224B1B681B02214A1360204B4B
:100F70001B6803F4E0631E4A1360FB7BDAB2BB6AB2
:100F80001A701C4B1B681B4A43F47F031360194BF8
:100F90001B68184A43F07F431360174B00221A6006
:100FA00000F0FAF8154B00221A6000F00FF9144B0C
:100FB0001B68134A43F040431360FFF726FF01F01C
:100FC00083FCFFF7E5FE002318463037BD4680BDA1
:100FD00000ED00E071C20F4170C20F4108ED00E06A
:100FE000E90D0008F110000800E400E01CA2002058
:100FF00020A2002020ED00E01CED00E00000002019
:1010000034EF00E080B483B000AF0B4B1B68B3F546
:101010007A7F0AD04FF0500383F31188BFF36F8FAC
:10102000BFF34F8F7B6000BFFEE700BF0C37BD46AC
:101030005DF8047B704700BF0000002080B483B0DF
:1010400000AF4FF0500383F31188BFF36F8FBFF3EE
:101050004F8F7B6000BF0F4B1B6801330D4A13603D
:101060000C4B1B68012B0FD10B4B1B68DBB2002B09
:101070000AD04FF0500383F31188BFF36F8FBFF393
:101080004F8F3B6000BFFEE700BF0C37BD465DF8E9
:10109000047B70470000002004ED00E080B483B0C2
:1010A00000AF124B1B68002B0AD14FF0500383F3A3
:1010B0001188BFF36F8FBFF34F8F7B6000BFFEE7D8
:1010C0000A4B1B68013B094A1360084B1B68002B45
:1010D00005D100233B603B6883F3118800BF00BF4C
:1010E0000C37BD465DF8047B704700BF0000002050
:1010F000EFF30980BFF36F8F144B1A681EF0100FC7
:1011000008BF20ED108A20E9F04F10602DE909009A
:101110004FF0500080F31188BFF34F8FBFF36F8FF4
:1011200001F0D2FB4FF0000080F3118809BC196870
:101130000868B0E8F04F1EF0100F08BFB0EC108A3E
:1011400080F30988BFF36F8F7047000024A200204E
:1011500000BF80B582B000AF4FF0500383F3118819
:10116000BFF36F8FBFF34F8F7B6000BF01F094FA26
:101170000346002B03D0074B4FF080521A60002328
:101180003B603B6883F3118800BF00BF0837BD4652
:1011900080BD00BF04ED00E080B400AF084B00222A
:1011A0001A60084B00221A60074B43F67F621A60F0
:1011B000034B07221A6000BFBD465DF8047B7047F1
:1011C00010E000E018E000E014E000E0DFF80C00C0
:1011D000016841F4700101607047000088ED00E093
:1011E00000BF80B485B000AFEFF30583FB60FB6800
:1011F0000F2B14D9164AFB6813441B78FB72154B4E
:101200001B78FA7A9A420AD24FF0500383F311887E
:10121000BFF36F8FBFF34F8F7B6000BFFEE70E4BB6
:101220001B6803F4E0620D4B1B689A420AD94FF029
:10123000500383F31188BFF36F8FBFF34F8F3B6071
:1012400000BFFEE700BF1437BD465DF8047B704762
:10125000F0E300E01CA200200CED00E020A2002042
:1012600080B58AB004AFF860B9607A603B607B6893
:101270009B001846FFF748F838613B69002B13D0F4
:101280005820FFF741F878617B69002B08D058227D
:101290000021786903F02AFA7B693A691A6305E04C
:1012A0003869FFF761F901E000237B617B69002B5E
:1012B0000DD0002303937B6902937B6A01933B6A01
:1012C00000933B687A68B968F86800F028F87B6991
:1012D00018461837BD4680BD80B588B002AFF860AB
:1012E000B9607A603B607B6A01933B6A00933B681C
:1012F0007A68B968F868FFF7B3FF38613B69002B7B
:1013000005D0386900F099F801237B6102E04FF0C5
:10131000FF337B617B6918461837BD4680BD80B5B9
:1013200088B000AFF860B9607A603B603B6B186BC7
:101330007B689B001A46A52103F0D8F93B6B1A6B1A
:101340007B6803F18043013B9B001344BB61BB6995
:1013500023F00703BB61BB6903F00703002B0AD02E
:101360004FF0500383F31188BFF36F8FBFF34F8F9C
:101370007B6100BFFEE7BB68002B1ED00023FB6132
:1013800012E0BA68FB69134419783A6BFB6913449D
:1013900034330A461A70BA68FB6913441B78002B71
:1013A00006D0FB690133FB61FB69092BE9D900E039
:1013B00000BF3B6B002283F83D20BB6A042B0AD997
:1013C0004FF0500383F31188BFF36F8FBFF34F8F3C
:1013D0003B6100BFFEE7BB6A042B01D90423BB625B
:1013E0003B6BBA6ADA623B6BBA6A9A643B6B043352
:1013F0001846FFF7A7FB3B6B18331846FFF7A2FB15
:101400003B6B3A6B1A61BB6AC3F105023B6B9A6195
:101410003B6B3A6B5A623A68F968B869FFF784FC2B
:1014200002463B6B1A60FB6A002B02D0FB6A3A6BE8
:101430001A6000BF2037BD4680BD80B584B000AFC4
:101440007860FFF7FBFD424B1B680133404A136095
:10145000404B1B68002B09D13E4A7B6813603C4B14
:101460001B68012B10D101F08DFD0DE03A4B1B687C
:10147000002B09D1374B1B68DA6A7B68DB6A9A421A
:1014800002D8344A7B681360344B1B680133334AFB
:101490001360324B1A687B681A647B68DB6A01222E
:1014A0009A402F4B1B6813432D4A13607B68DA6AFE
:1014B0002C4913469B0013449B000B4404331B68C8
:1014C000FB607B68FA689A60FB689A687B68DA6000
:1014D000FB689B687A6804325A607B681A1DFB6857
:1014E0009A607B68DA6A13469B0013449B001D4A8E
:1014F0001A447B685A617B68DA6A1A4913469B0072
:1015000013449B000B441B687A68D26A591C154827
:1015100013469B0013449B0003441960FFF7BEFD74
:101520000D4B1B68002B0ED00A4B1B68DA6A7B68D8
:10153000DB6A9A4207D20C4B4FF080521A60BFF31D
:101540004F8FBFF36F8F00BF1037BD4680BD00BF08
:10155000FCA2002024A2002008A3002018A3002041
:1015600004A3002028A2002004ED00E080B588B08C
:1015700000AF78600023FB61FFF760FD7B68002B04
:1015800002D1484B1B6800E07B68BB61BB69002B44
:101590000AD14FF0500383F31188BFF36F8FBFF36D
:1015A0004F8F3B6100BFFEE7BB6904331846FFF76E
:1015B00033FB0346002B15D1BB69DA6A3A4913465F
:1015C0009B0013449B000B441B68002B0AD1BB6992
:1015D000DB6A012202FA03F3DA43344B1B6813403F
:1015E000324A1360BB699B6A002B04D0BB69183375
:1015F0001846FFF711FB2E4B1B6801332C4A136072
:10160000284B1B68BA699A4201D1012300E00023EC
:101610007B61284B1B68002B10D07B69002B0DD001
:10162000BB69043319462448FFF799FA234B1B681A
:101630000133224A13600123FB6106E0204B1B6843
:10164000013B1F4A136001F001FEFFF727FDFB6914
:10165000012B02D0B86901F0E9FD164B1B68002B85
:101660001BD0104B1B68BA699A4216D1154B1B68E8
:10167000002B0AD04FF0500383F31188BFF36F8F14
:10168000BFF34F8FFB6000BFFEE70F4B4FF0805260
:101690001A60BFF34F8FBFF36F8F00BF2037BD4677
:1016A00080BD00BF24A2002028A2002004A30020A7
:1016B00018A3002008A30020D0A20020E4A200204C
:1016C000FCA2002024A3002004ED00E080B58AB035
:1016D00000AF7860396000237B627B68002B0AD101
:1016E0004FF0500383F31188BFF36F8FBFF34F8F19
:1016F0007B6100BFFEE73B68002B0AD14FF050032F
:1017000083F31188BFF36F8FBFF34F8F3B6100BF2F
:10171000FEE700F09FFD294B1B683B62284B1B68CE
:10172000012B0AD04FF0500383F31188BFF36F8F62
:10173000BFF34F8FFB6000BFFEE77B681B683A6812
:101740001344FB617B681B683A6A9A420BD27B6840
:101750001B68FA699A4211D2FA693B6A9A420DD91A
:1017600001237B620AE07B681B68FA699A4203D313
:10177000FA693B6A9A4201D901237B627B68FA6964
:101780001A607B6A002B06D0FA693B6AD31A0021E3
:10179000184602F007FD00F06BFDB861BB69002B35
:1017A00007D1084B4FF080521A60BFF34F8FBFF341
:1017B0006F8F7B6A18462837BD4680BD00A3002086
:1017C00024A3002004ED00E080B584B000AF786071
:1017D0000023FB607B68002B17D000F03BFD124B11
:1017E0001B68012B0AD04FF0500383F31188BFF31D
:1017F0006F8FBFF34F8FBB6000BFFEE7002178689B
:1018000002F0D0FC00F034FDF860FB68002B07D13B
:10181000064B4FF080521A60BFF34F8FBFF36F8FAC
:1018200000BF1037BD4680BD24A3002004ED00E0BA
:1018300080B58AB000AF78607B68FB61FB69002BE4
:101840000AD14FF0500383F31188BFF36F8FBFF3BA
:101850004F8FBB6000BFFEE7324B1B68FA699A42AC
:1018600003D1002387F8273056E0FFF7E7FBFB6939
:101870005B69BB61FB699B6A7B612B4B1B683B61AE
:101880002A4B1B68FB60FFF709FC7B69284A9342DF
:1018900003D1012387F827303EE0BA693B699A42B9
:1018A00003D0BA69FB689A4203D1022387F8273034
:1018B00032E0BB691F4A934220D1FB699B6A002B2F
:1018C00018D1032387F8273000233B620EE0FA6922
:1018D0003B6A134454331B78DBB2012B03D1022340
:1018E00087F8273018E03B6A01333B623B6A002BE4
:1018F000EDDD11E0022387F827300DE0BB690E4AC9
:10190000934202D0BB69002B03D1042387F8273010
:1019100002E0012387F8273097F827301846283748
:10192000BD4680BD24A20020B4A20020B8A20020A1
:10193000BCA20020E8A20020D0A2002080B586B082
:1019400000AF7860FFF77AFB7B68002B02D10E4B6B
:101950001B6800E07B687B617B69002B0AD14FF03C
:10196000500383F31188BFF36F8FBFF34F8FFB607A
:1019700000BFFEE77B69DB6A3B61FFF78FFB3B69DA
:1019800018461837BD4680BD24A2002080B58AB015
:1019900000AF7860FFF725FCEFF311824FF05003A2
:1019A00083F31188BFF36F8FBFF34F8FBA617B61F1
:1019B000BB697B627B68002B02D1104B1B6800E087
:1019C0007B683B623B6A002B0AD14FF0500383F3E4
:1019D0001188BFF36F8FBFF34F8F3B6100BFFEE7EE
:1019E0003B6ADB6AFB617B6AFB60FB6883F31188FF
:1019F00000BFFB6918462837BD4680BD24A20020E1
:101A000080B586B000AF7860FFF718FB7B68002BCD
:101A100002D10E4B1B6800E07B687B617B69002B69
:101A20000AD14FF0500383F31188BFF36F8FBFF3D8
:101A30004F8FFB6000BFFEE77B699B6C3B61FFF74C
:101A40002DFB3B6918461837BD4680BD24A20020F7
:101A500080B58AB000AF7860FFF7C3FBEFF3118267
:101A60004FF0500383F31188BFF36F8FBFF34F8F95
:101A7000BA617B61BB697B627B68002B02D1104B32
:101A80001B6800E07B683B623B6A002B0AD14FF089
:101A9000500383F31188BFF36F8FBFF34F8F3B6108
:101AA00000BFFEE73B6A9B6CFB617B6AFB60FB68E7
:101AB00083F3118800BFFB6918462837BD4680BDF7
:101AC00024A2002080B58AB000AF7860396000237E
:101AD0007B623B68042B0AD94FF0500383F31188D3
:101AE000BFF36F8FBFF34F8F3B6100BFFEE73B68D3
:101AF000042B01D904233B60FFF7A0FA7B68002B7D
:101B000002D1604B1B6800E07B683B623B6A002BA4
:101B10000AD14FF0500383F31188BFF36F8FBFF3E7
:101B20004F8FFB6000BFFEE73B6A9B6CFB61FA696D
:101B30003B689A4200F09F803A68FB699A420DD94F
:101B4000504B1B683A6A9A420FD04E4B1B68DB6AB7
:101B50003A689A4209D901237B6206E0494B1B6827
:101B60003A6A9A4201D101237B623B6ADB6ABB611C
:101B70003B6A9A6C3B6ADB6A9A4204D03B6ADB6A36
:101B80003A689A4202D93B6A3A68DA623B6A3A6832
:101B90009A643B6A9B69002B04DB3B68C3F1050236
:101BA0003B6A9A613B6A5969BA6913469B001344C0
:101BB0009B00354A1344994252D13B6A043318467C
:101BC000FFF72AF80346002B09D10122BB6902FA6C
:101BD00003F3DA432D4B1B6813402C4A13603B6A16
:101BE000DB6A01229A40294B1B681343274A136082
:101BF0003B6ADA6A244913469B0013449B000B445A
:101C000004331B687B613B6A7A699A607B699A68D6
:101C10003B6ADA607B699B683A6A04325A603B6AC5
:101C20001A1D7B699A603B6ADA6A13469B0013446B
:101C30009B00154A1A443B6A5A613B6ADA6A1249A8
:101C400013469B0013449B000B441B683A6AD26AFC
:101C5000591C0D4813469B0013449B000344196014
:101C60007B6A002B07D00A4B4FF080521A60BFF3FB
:101C70004F8FBFF36F8FFFF711FA00BF2837BD46B4
:101C800080BD00BF24A2002028A2002004A30020C1
:101C900004ED00E080B588B000AF7860FFF7CEF9C2
:101CA0007B68002B02D14B4B1B6800E07B68BB615B
:101CB000BB69002B0AD14FF0500383F31188BFF3A7
:101CC0006F8FBFF34F8F3B6100BFFEE7BB690433EB
:101CD0001846FEF7A1FF0346002B15D1BB69DA6A4F
:101CE0003D4913469B0013449B000B441B68002B8B
:101CF0000AD1BB69DB6A012202FA03F3DA43374BEC
:101D00001B681340354A1360BB699B6A002B04D0E3
:101D1000BB6918331846FEF77FFFBB6904331946C9
:101D20002F48FEF71CFF0023FB6110E0BA69FB6936
:101D3000134454331B78DBB2012B05D1BA69FB691C
:101D40001344543300221A70FB690133FB61FB69B1
:101D5000002BEBDDFFF7A2F9224B1B68002B05D00F
:101D6000FFF76CF901F072FAFFF798F9194B1B684D
:101D7000BA699A4229D11B4B1B68002B17D01A4B0A
:101D80001B68002B0AD04FF0500383F31188BFF378
:101D90006F8FBFF34F8FFB6000BFFEE7134B4FF019
:101DA00080521A60BFF34F8FBFF36F8F0DE00C4B63
:101DB0001B687B610E4B1B687A699A4203D1054B05
:101DC00000221A6001E000F07FFD00BF2037BD4611
:101DD00080BD00BF24A2002028A2002004A3002070
:101DE000E8A2002008A3002024A3002004ED00E0C6
:101DF000FCA2002080B487B000AF786000237B6134
:101E00007B68FB607B68002B0AD14FF0500383F3A3
:101E10001188BFF36F8FBFF34F8FBB6000BFFEE72A
:101E2000FB685B69144A93421ED1FB689B6A134AA4
:101E3000934219D0FB689B6A002B15D101237B616B
:101E400000233B610DE0FA683B69134454331B786F
:101E5000DBB2012B02D100237B6105E03B6901333A
:101E60003B613B69002BEEDD7B6918461C37BD46A4
:101E70005DF8047B704700BFE8A20020BCA20020F0
:101E800080B586B000AF78607B687B617B68002B93
:101E90000AD14FF0500383F31188BFF36F8FBFF364
:101EA0004F8FFB6000BFFEE7354B1B687A699A4293
:101EB00061D07B69002B5ED0FFF7C0F87869FFF72F
:101EC00099FF0346002B54D07B6904331846FEF774
:101ED000A3FE7B69DB6A01229A402A4B1B681343ED
:101EE000284A13607B69DA6A274913469B0013442A
:101EF0009B000B4404331B683B617B693A699A6021
:101F00003B699A687B69DA603B699B687A6904324D
:101F10005A607B691A1D3B699A607B69DA6A1346CD
:101F20009B0013449B00184A1A447B695A617B69E1
:101F3000DA6A154913469B0013449B000B441B6847
:101F40007A69D26A591C104813469B0013449B00BF
:101F5000034419600A4B1B68DA6A7B69DB6A9A42A0
:101F600007D20A4B4FF080521A60BFF34F8FBFF376
:101F70006F8FFFF793F800BF1837BD4680BD00BFD5
:101F800024A2002004A3002028A2002004ED00E0E9
:101F900080B58AB000AF786000237B627B683B62CB
:101FA0007B68002B0AD14FF0500383F31188BFF3F5
:101FB0006F8FBFF34F8F7B6100BFFEE7FFF711F913
:101FC000EFF311824FF0500383F31188BFF36F8F4B
:101FD000BFF34F8F3A61FB603B69FB61386AFFF7E3
:101FE00009FF0346002B5CD0334B1B68002B52D1FA
:101FF0003B6ADA6A314B1B68DB6A9A4204D90123D7
:102000007B622F4B01221A603B6A04331846FEF7AD
:1020100003FE3B6ADB6A01229A402A4B1B6813438A
:10202000284A13603B6ADA6A274913469B00134427
:102030009B000B4404331B68BB613B6ABA699A601E
:10204000BB699A683B6ADA60BB699B683A6A04328A
:102050005A603B6A1A1DBB699A603B6ADA6A13468A
:102060009B0013449B00184A1A443B6A5A613B6A1E
:10207000DA6A154913469B0013449B000B441B6806
:102080003A6AD26A591C104813469B0013449B00BD
:102090000344196005E03B6A183319460B48FEF704
:1020A0005EFDFB69BB60BB6883F3118800BF7B6A80
:1020B00018462837BD4680BD24A3002024A2002056
:1020C00010A3002004A3002028A20020BCA200200E
:1020D00080B58AB002AF0123FB6100237B6007F16A
:1020E000080300221A609A8000233B6100237B6171
:1020F00011E0204A7B69134419783A1D7B69134427
:102100000A461A703A1D7B6913441B78002B06D0CF
:102110007B6901337B617B69082BEAD900E000BF52
:102120003A1D7B69134400221A700023BB6116E03C
:10213000114B3B61BB699B00104A1344391D01934D
:102140000023009300234FF400723869FFF7C4F8AE
:10215000F861FB69012B06D1BB690133BB61BB6927
:10216000002BE5DD00E000BFFB6918462037BD46C7
:1021700080BD00BF18900008572F000820A3002042
:1021800080B584B000AFFFF7A3FFF860FB68012BB8
:1021900016D14FF0500383F31188BFF36F8FBFF355
:1021A0004F8FBB6000BF114B4FF0FF321A60104BD6
:1021B00001221A600F4B00221A60FEF73AFE0EE071
:1021C000FB68B3F1FF3F0AD14FF0500383F311884E
:1021D000BFF36F8FBFF34F8F7B6000BFFEE7064BEF
:1021E0001B6800BF1037BD4680BD00BF1CA3002088
:1021F00008A3002000A300200400002080B582B0C6
:1022000000AF00237B6009E0104A7B6852F823305E
:102210001846FFF7ABF97B6801337B607B68002BC6
:10222000F2DD00F0EFFE4FF0500383F31188BFF3AF
:102230006F8FBFF34F8F3B6000BF054B00221A60CA
:10224000FEF7E0FE00BF0837BD4680BD20A300209A
:1022500008A3002080B400AF044B1B680133034A7D
:10226000136000BFBD465DF8047B704724A30020C7
:1022700080B588B000AF0023FB610023BB61FEF78F
:10228000DDFE00233B61754B1B68002B0AD14FF02C
:10229000500383F31188BFF36F8FBFF34F8F3B6001
:1022A00000BFFEE76D4B1B68013B6C4A13606B4B34
:1022B0001B68002B40F0CA80694B1B68002B00F0A4
:1022C000C5808EE0674BDB68DB68FB61FB699B6A5E
:1022D000FB60FB69DB69FA69126A9A60FB691B6A39
:1022E000FA69D2695A60FB685A68FB6918339A42E6
:1022F00003D1FB691A6AFB685A60FB6900229A6283
:10230000FB681B685A1EFB681A60FB695B69BB604F
:10231000FB699B68FA69D2689A60FB69DB68FA69B5
:1023200092685A60BB685A68FB6904339A4203D1C9
:10233000FB69DA68BB685A60FB6900225A61BB68B6
:102340001B685A1EBB681A60FB69DB6A01229A404F
:10235000454B1B681343444A1360FB69DA6A4349DF
:1023600013469B0013449B000B4404331B687B60A3
:10237000FB697A689A607B689A68FB69DA607B68B7
:102380009B68FA6904325A60FB691A1D7B689A607F
:10239000FB69DA6A13469B0013449B00334A1A44D4
:1023A000FB695A61FB69DA6A304913469B001344A2
:1023B0009B000B441B68FA69D26A591C2B481346D0
:1023C0009B0013449B0003441960FB69DA6A284BA5
:1023D0001B68DB6A9A4204D9264A3B69012142F80C
:1023E0002310204B1B68002B7FF46CAFFB69002B84
:1023F00001D000F02BFF204B1B687B617B69002B19
:1024000012D000F049F90346002B04D0194A3B6969
:10241000012142F823107B69013B7B617B69002B22
:10242000EFD1154B00221A60124A3B6952F8233053
:10243000002B0BD00123BB610D4B1B680F4B4FF0E2
:1024400080521A60BFF34F8FBFF36F8FFEF726FEE7
:10245000BB6918462037BD4680BD00BF24A30020BD
:10246000FCA20020BCA2002004A3002028A200207F
:1024700024A2002010A300200CA3002004ED00E003
:1024800080B483B000AF054B1B687B607B68184647
:102490000C37BD465DF8047B704700BF00A30020E9
:1024A00080B582B000AFFEF79CFE00237B60044B3A
:1024B0001B683B603B6818460837BD4680BD00BFBF
:1024C00000A3002080B400AF034B1B681846BD4634
:1024D0005DF8047B704700BFFCA2002080B485B08B
:1024E00000AF78607B68002B02D10D4B1B6800E0C9
:1024F0007B68FB60FB68002B0AD14FF0500383F32D
:102500001188BFF36F8FBFF34F8FBB6000BFFEE733
:10251000FB68343318461437BD465DF8047B7047BA
:1025200024A2002080B586B000AFF860B9607A6060
:1025300000237B6105233B61FFF78CFE3A4B1B6850
:10254000BA689A4268D33B69013B3B617A6913469A
:10255000DB0013449B001A46FB6898183A6913463F
:102560009B0013449B00314A13440122194600F09A
:102570000DFE02467B6913447B613B69002BE2D16F
:102580007A691346DB0013449B001A46FB68134428
:10259000274A11680222184600F0F8FD02467B69BE
:1025A00013447B617A691346DB0013449B001A468F
:1025B000FB6813441F4A11680222184600F0E6FD2A
:1025C00002467B6913447B617A691346DB0013443E
:1025D0009B001A46FB68134404221749184600F072
:1025E000D5FD02467B6913447B617A691346DB00A3
:1025F00013449B001A46FB68134403220F491846F4
:1026000000F0C4FD02467B6913447B617B68002BAC
:1026100002D07B6800221A60FFF72AFE7B69184609
:102620001837BD4680BD00BFFCA2002028A20020B4
:10263000B4A20020B8A20020D0A20020E8A200206E
:1026400080B584B000AF7860114B1B68002B0AD0B6
:102650004FF0500383F31188BFF36F8FBFF34F8F99
:10266000BB6000BFFEE7FFF7F5FDFEF7E7FC094B97
:102670001A687B681344074A1360FEF70FFDFFF7E3
:10268000F7FDF860FB6818461037BD4680BD00BFF7
:1026900024A300200CA3002080B58AB000AF002343
:1026A0007B627E4B1B68002B40F0EE807C4B1B68EE
:1026B00001333B627A4A3B6A13603B6A002B20D1AC
:1026C000784B1B681B68002B0AD04FF0500383F334
:1026D0001188BFF36F8FBFF34F8F7B6000BFFEE7A2
:1026E000704B1B68FB61704B1B686E4A13606E4A2F
:1026F000FB6913606D4B1B6801336C4A136000F07B
:10270000A5FD6B4B1B683A6A9A42C0F0A880654BE6
:102710001B681B68002B04D1654B4FF0FF321A6019
:102720009DE0604B1B68DB68DB68BB61BB695B6875
:102730007B613A6A7B699A4203D25D4A7B69136086
:102740008DE0BB695B693B61BB699B68BA69D26814
:102750009A60BB69DB68BA6992685A603B695A68DB
:10276000BB6904339A4203D1BB69DA683B695A609A
:10277000BB6900225A613B691B685A1E3B691A609B
:10278000BB699B6A002B1ED0BB699B6AFB60BB695F
:10279000DB69BA69126A9A60BB691B6ABA69D26955
:1027A0005A60FB685A68BB6918339A4203D1BB6907
:1027B0001A6AFB685A60BB6900229A62FB681B6850
:1027C0005A1EFB681A60BB69DB6A01229A40394BCA
:1027D0001B681343374A1360BB69DA6A36491346EC
:1027E0009B0013449B000B4404331B68BB60BB6914
:1027F000BA689A60BB689A68BB69DA60BB689B6814
:10280000BA6904325A60BB691A1DBB689A60BB6919
:10281000DA6A13469B0013449B00274A1A44BB699B
:102820005A61BB69DA6A244913469B0013449B0032
:102830000B441B68BA69D26A591C1F4813469B0097
:1028400013449B0003441960BB69DA6A1B4B1B6885
:10285000DB6A9A427FF65BAF01237B6257E7174B37
:102860001B68DA6A144913469B0013449B000B440F
:102870001B68012B01D901237B62114B1B68002BC4
:1028800007D001237B6204E00E4B1B6801330D4A25
:1028900013607B6A18462837BD4680BD24A30020FC
:1028A00000A30020B4A20020B8A2002014A300209E
:1028B0001CA3002004A3002028A2002024A20020A2
:1028C00010A300200CA3002080B487B000AF274BDA
:1028D0001B68002B03D0264B01221A6040E0244BDA
:1028E00000221A60234B1B68FB60FB68B3FA83F37A
:1028F000FB72FB7AC3F11F037B611F497A691346A0
:102900009B0013449B000B441B68002B0AD14FF023
:10291000500383F31188BFF36F8FBFF34F8F7B603A
:1029200000BFFEE77A6913469B0013449B00124ADE
:1029300013443B613B695B685A683B695A603B6979
:102940005A683B6908339A4203D13B69DA683B69AC
:102950005A603B695B68DB68084A1360074B1B6879
:1029600000BF1C37BD465DF8047B704724A30020E0
:1029700010A3002004A3002028A2002024A20020ED
:1029800080B584B000AF786039607B68002B0AD1D5
:102990004FF0500383F31188BFF36F8FBFF34F8F56
:1029A000FB6000BFFEE7074B1B68183319467868C9
:1029B000FEF7F9F80121386801F0F4FB00BF103789
:1029C000BD4680BD24A2002080B588B000AFF8606D
:1029D000B9607A60FB68002B0AD14FF0500383F393
:1029E0001188BFF36F8FBFF34F8FBB6100BFFEE74E
:1029F0001E4B1B68002B0AD14FF0500383F3118844
:102A0000BFF36F8FBFF34F8F7B6100BFFEE7184BA3
:102A10001B68BA6842F000429A61FB685B68FB6120
:102A2000134B1B68FA69DA61114B1B68FA699268EB
:102A30001A620F4B1A68FB699B6818325A600C4B7C
:102A40001B6803F11802FB699A60094B1B68FA685E
:102A50009A62FB681B685A1CFB681A60012178683F
:102A600001F0A0FB00BF2037BD4680BD24A300209D
:102A700024A2002080B48BB000AF78607B68DB6854
:102A8000DB683B623B6A002B0AD14FF0500383F3B3
:102A90001188BFF36F8FBFF34F8FFB6000BFFEE75E
:102AA0003B6A9B6AFB613B6ADB693A6A126A9A601D
:102AB0003B6A1B6A3A6AD2695A60FB695A683B6A88
:102AC00018339A4203D13B6A1A6AFB695A603B6A1F
:102AD00000229A62FB691B685A1EFB691A604B4B05
:102AE0001B68002B60D13B6A5B697B613B6A9B681A
:102AF0003A6AD2689A603B6ADB683A6A92685A60BE
:102B00007B695A683B6A04339A4203D13B6ADA68AC
:102B10007B695A603B6A00225A617B691B685A1EB6
:102B20007B691A603B6ADB6A01229A40384B1B685A
:102B30001343374A13603B6ADA6A364913469B00EF
:102B400013449B000B4404331B683B613B6A3A69A6
:102B50009A603B699A683B6ADA603B699B683A6AAB
:102B600004325A603B6A1A1D3B699A603B6ADA6A12
:102B700013469B0013449B00264A1A443B6A5A6141
:102B80003B6ADA6A234913469B0013449B000B44BB
:102B90001B683A6AD26A591C1E4813469B001344AC
:102BA0009B00034419601BE01B4B5B68BB613B6AE5
:102BB000BA69DA61BB699A683B6A1A62BB699B6849
:102BC0003A6A18325A603B6A03F11802BB699A608C
:102BD0003B6A114A9A62104B1B6801330E4A13601C
:102BE0003B6ADA6A0D4B1B68DB6A9A4205D90123FE
:102BF0007B620B4B01221A6001E000237B627B6A3F
:102C000018462C37BD465DF8047B704724A300208E
:102C100004A3002028A20020BCA2002024A200209F
:102C200010A3002080B489B000AF78603960594BA0
:102C30001B68002B0AD14FF0500383F31188BFF3B8
:102C40006F8FBFF34F8FFB6000BFFEE73B6843F021
:102C500000427B681A607B68DB68FB61FB69002BC4
:102C60000AD14FF0500383F31188BFF36F8FBFF386
:102C70004F8FBB6000BFFEE77B681B69BB617B6851
:102C80005B687A6892689A607B689B687A68526829
:102C90005A60BB695B687A689A4203D17B689A681C
:102CA000BB695A607B6800221A61BB691B685A1EA7
:102CB000BB691A60FB695B697B61FB699B68FA69A8
:102CC000D2689A60FB69DB68FA6992685A607B692E
:102CD0005A68FB6904339A4203D1FB69DA687B695D
:102CE0005A60FB6900225A617B691B685A1E7B6926
:102CF0001A60FB69DB6A01229A40274B1B68134369
:102D0000254A1360FB69DA6A244913469B00134481
:102D10009B000B4404331B683B61FB693A699A6072
:102D20003B699A68FB69DA603B699B68FA6904321F
:102D30005A60FB691A1D3B699A60FB69DA6A13469F
:102D40009B0013449B00154A1A44FB695A61FB69B6
:102D5000DA6A124913469B0013449B000B441B681C
:102D6000FA69D26A591C0D4813469B0013449B0014
:102D700003441960FB69DA6A094B1B68DB6A9A42F3
:102D800002D9084B01221A6000BF2437BD465DF806
:102D9000047B704724A3002004A3002028A2002065
:102DA00024A2002010A3002080B584B000AF78607A
:102DB0007B68002B0AD14FF0500383F31188BFF3D7
:102DC0006F8FBFF34F8FFB6000BFFEE7FEF736F952
:102DD000064B1A687B681A60054B1A687B685A6054
:102DE000FEF75CF900BF1037BD4680BD14A300207C
:102DF00000A3002080B483B000AF7860064B1A684F
:102E00007B681A60054B1A687B685A6000BF0C37F4
:102E1000BD465DF8047B704714A3002000A300208A
:102E200080B588B000AF786039607B68002B0AD12C
:102E30004FF0500383F31188BFF36F8FBFF34F8FB1
:102E40003B6100BFFEE73B68002B0AD14FF0500307
:102E500083F31188BFF36F8FBFF34F8FFB6000BF09
:102E6000FEE7FEF7EBF81F4B1B68BB617B685B68F6
:102E7000BA69D31A7B613B681B68B3F1FF3F02D18B
:102E80000023FB6126E07B681A68174B1B689A4297
:102E90000AD07B685B68BA699A4205D30123FB615B
:102EA0003B6800221A6015E03B681B687A699A4209
:102EB0000BD23B681A687B69D21A3B681A60786843
:102EC000FFF798FF0023FB6104E03B6800221A60D3
:102ED0000123FB61FEF7E2F8FB6918462037BD4687
:102EE00080BD00BF00A3002014A3002080B400AF69
:102EF000034B01221A6000BFBD465DF8047B70479A
:102F000010A3002080B485B000AF78607B68002BF0
:102F100005D07B68BB60BB685B6CFB6001E0002395
:102F2000FB60FB6818461437BD465DF8047B7047AC
:102F300080B485B000AF786039607B68002B04D026
:102F40007B68FB60FB683A685A6400BF1437BD4673
:102F50005DF8047B704780B582B000AF786000F008
:102F600051F8064B1B68012BF9D9054B4FF08052E5
:102F70001A60BFF34F8FBFF36F8FF0E728A20020D6
:102F800004ED00E080B582B000AF00237B600CE070
:102F90007A6813469B0013449B00124A1344184658
:102FA000FDF7B0FD7B6801337B607B68042BEFD9B4
:102FB0000D48FDF7A7FD0D48FDF7A4FD0C48FDF7F2
:102FC000A1FD0C48FDF79EFD0B48FDF79BFD0B4B4B
:102FD000054A1A600A4B054A1A6000BF0837BD4609
:102FE00080BD00BF28A200208CA20020A0A200204B
:102FF000BCA20020D0A20020E8A20020B4A20020A1
:10300000B8A2002080B582B000AF19E0FEF716F834
:10301000104BDB68DB687B607B6804331846FDF788
:10302000FBFD0D4B1B68013B0B4A13600B4B1B68F0
:10303000013B0A4A1360FEF731F8786800F0F6F8B1
:10304000064B1B68002BE1D100BF00BF0837BD460F
:1030500080BD00BFD0A20020FCA20020E4A200207E
:1030600080B588B000AFF860B9607A60FB70FB682B
:10307000002B02D1434B1B6800E0FB68BB61BB69BE
:10308000002B0AD14FF0500383F31188BFF36F8FE9
:10309000BFF34F8F7B6100BFFEE7BB68BA691A6060
:1030A000BB6903F13402BB685A60BB69DA6ABB686A
:1030B0001A61BB691A6BBB68DA61BB691A6CBB68C1
:1030C0009A60BB699A6CBB685A61BB6800229A61BE
:1030D000FB78052B3CD02B4B1B68BA699A4203D175
:1030E000BB6800221A733AE0BB68FA781A73FB785F
:1030F000032B20D1FFF7AEF8BB699B6A002B03D0EE
:10310000BB6802221A7314E00023FB610EE0BA6967
:10311000FB69134454331B78DBB2012B03D1BB682A
:1031200002221A7305E0FB690133FB61FB69002B86
:10313000EDDDFFF79DF8FDF781FFBB699B6A124A41
:10314000934202D1BB6801221A73FDF7A7FF06E084
:10315000B869FEF76DFB03461A46BB681A737B68B5
:10316000002B08D0BB691B6B184600F044F80246E0
:10317000BB681A6202E0BB6800221A6200BF2037F7
:10318000BD4680BD24A20020BCA2002080B588B02E
:1031900000AFF860B9601346FB710023FB61BB68A8
:1031A00008337B6100233B61BB681B68002B1DD08B
:1031B000BB68DB68BB6115E0BB69DB683B61FA6932
:1031C0001346DB0013449B001A46FB689918FB79F1
:1031D00001223869FFF744FFFB690133FB61BB69DA
:1031E0005B68BB61BA697B699A42E5D1FB691846A5
:1031F0002037BD4680BD80B485B000AF7860002325
:10320000FB6005E07B6801337B60FB680133FB609A
:103210007B681B78A52BF5D0FB689B08FB60FB68DF
:1032200018461437BD465DF8047B704780B582B000
:1032300000AF78607B681B6B1846FDF795F97868DE
:10324000FDF792F900BF0837BD4680BD80B400AFDE
:103250000A4B1B681B68002B04D1094B4FF0FF324F
:103260001A6005E0054B1B68DB681B68044A1360A5
:1032700000BFBD465DF8047B704700BFB4A20020CC
:103280001CA3002080B483B000AF054B1B687B609B
:103290007B6818460C37BD465DF8047B704700BF5D
:1032A00024A2002080B485B000AF78600023FB60CA
:1032B0007B68002B05DB7B68002B02DC044B1B6862
:1032C000FB60FB6818461437BD465DF8047B704709
:1032D00024A2002080B586B000AF78607B683B6197
:1032E00000237B617B68002B00F089803B69DA6AF0
:1032F000454B1B68DB6A9A4278D23B699B69002B7D
:1033000006DB414B1B68DB6AC3F105023B699A612E
:103310003B6959693B69DA6A13469B0013449B0079
:103320003A4A1344994259D13B6904331846FDF790
:1033300073FC0346002B0AD13B69DB6A012202FAC7
:1033400003F3DA43324B1B681340314A13602E4BB0
:103350001B68DA6A3B69DA623B69DB6A01229A40E0
:103360002B4B1B6813432A4A13603B69DA6A2749CF
:1033700013469B0013449B000B4404331B68FB6003
:103380003B69FA689A60FB689A683B69DA60FB6897
:103390009B683A6904325A603B691A1DFB689A605F
:1033A0003B69DA6A13469B0013449B00174A1A4490
:1033B0003B695A613B69DA6A144913469B0013441E
:1033C0009B000B441B683A69D26A591C0F4813468C
:1033D0009B0013449B000344196004E00A4B1B68E4
:1033E000DA6A3B69DA6201237B6108E03B699A6C27
:1033F000054B1B68DB6A9A4201D201237B617B6922
:1034000018461837BD4680BD24A2002028A20020FF
:1034100004A3002080B588B000AF78607B68BB61F2
:103420000023FB617B68002B00F08E80494B1B68FA
:10343000BA699A420AD04FF0500383F31188BFF360
:103440006F8FBFF34F8F3B6100BFFEE7BB69DB6C43
:10345000002B0AD14FF0500383F31188BFF36F8F15
:10346000BFF34F8FFB6000BFFEE7BB69DB6C5A1EEA
:10347000BB69DA64BB69DA6ABB699B6C9A4263D048
:10348000BB69DB6C002B5FD1BB6904331846FDF7C9
:10349000C3FB0346002B0AD1BB69DB6A012202FA97
:1034A00003F3DA432C4B1B6813402B4A1360BB69B0
:1034B0009A6CBB69DA62BB69DB6AC3F10502BB695E
:1034C0009A61BB69DB6A01229A40234B1B68134354
:1034D000214A1360BB69DA6A204913469B001344F2
:1034E0009B000B4404331B687B61BB697A699A605B
:1034F0007B699A68BB69DA607B699B68BA69043248
:103500005A60BB691A1D7B699A60BB69DA6A134607
:103510009B0013449B00114A1A44BB695A61BB6962
:10352000DA6A0E4913469B0013449B000B441B6848
:10353000BA69D26A591C094813469B0013449B0080
:10354000034419600123FB61FB6918462037BD461F
:1035500080BD00BF24A2002004A3002028A20020D8
:1035600080B58AB000AF786039607B683B62012328
:10357000FB617B68002B00F0A3803B6ADB6C002BB7
:103580000AD14FF0500383F31188BFF36F8FBFF35D
:103590004F8F3B6100BFFEE73B6A9B6C3A689A42E3
:1035A00002D93B687B6202E03B6A9B6C7B623B6AB0
:1035B000DB6A7A6A9A4200F083803B6ADB6CFA69C4
:1035C0009A427DD1404B1B683A6A9A420AD14FF029
:1035D000500383F31188BFF36F8FBFF34F8FFB60EE
:1035E00000BFFEE73B6ADB6ABB613B6A7A6ADA626C
:1035F0003B6A9B69002B04DB7B6AC3F105023B6AD3
:103600009A613B6A5969BA6913469B0013449B004F
:103610002E4A1344994253D13B6A04331846FDF7AE
:10362000FBFA0346002B0AD13B6ADB6A012202FA4D
:1036300003F3DA43264B1B681340254A13603B6AA9
:10364000DB6A01229A40224B1B681343204A136015
:103650003B6ADA6A1D4913469B0013449B000B44E6
:1036600004331B687B613B6A7A699A607B699A685C
:103670003B6ADA607B699B683A6A04325A603B6A4B
:103680001A1D7B699A603B6ADA6A13469B001344F1
:103690009B000E4A1A443B6A5A613B6ADA6A0B493C
:1036A00013469B0013449B000B441B683A6AD26A82
:1036B000591C064813469B0013449B0003441960A1
:1036C00000BF2837BD4680BD24A2002028A20020CC
:1036D00004A3002080B483B000AF094B1B689B6932
:1036E0007B60074B1B68DA6A054B1B68C2F1050259
:1036F0009A617B6818460C37BD465DF8047B7047BD
:1037000024A2002080B483B000AF094B1B687B600B
:103710007B68002B04D07B68DB6C5A1C7B68DA6406
:103720007B6818460C37BD465DF8047B704700BFC8
:1037300024A2002080B588B000AFF860B9607A603C
:103740000023FB61FB68002B0AD04FF0500383F38A
:103750001188BFF36F8FBFF34F8F3B6100BFFEE750
:10376000334B1B68FA68143253F82230002B31D1E6
:103770007B68002B2ED0FEF76DFDFDF75FFC2C4B18
:103780001B68FA68143253F82230002B08D1284BFA
:103790001A68FB681344543301221A700123FB6139
:1037A000FDF77CFCFB69012B03D10121786800F057
:1037B000F9FCFEF75DFDB861FB69012B0AD1BB691D
:1037C000002B07D11B4B4FF080521A60BFF34F8F75
:1037D000BFF36F8FFDF732FC154B1B68FA6814328C
:1037E00053F822307B617B69002B12D0BB68002B21
:1037F00007D00F4B1B68FA681432002143F82210DF
:1038000007E00B4B1B687A69511EFA68143243F8C3
:103810002210074B1A68FB681344543300221A70B5
:10382000FDF73CFC7B6918462037BD4680BD00BFD4
:1038300024A2002004ED00E080B588B000AFF8605D
:10384000B9607A603B600023BB61FB68002B0AD043
:103850004FF0500383F31188BFF36F8FBFF34F8F87
:103860003B6100BFFEE73F4B1A68FB6813445433CB
:103870001B78DBB2022B3FD0BB6A002B3CD0FEF79B
:10388000E9FCFDF7DBFB374B1A68FB681344543344
:103890001B78DBB2022B15D0324B1B68FA6814324E
:1038A00053F82210BA68D2431140FA68143243F830
:1038B00022102C4B1A68FB681344543301221A70EF
:1038C0000123BB61FDF7EAFBBB69012B03D1012199
:1038D000B86A00F067FCFEF7CBFC7861BB69012B8E
:1038E0000AD17B69002B07D11F4B4FF080521A6021
:1038F000BFF34F8FBFF36F8FFDF7A0FB3B68002B2B
:1039000007D0184B1B68FA68143253F822203B6822
:103910001A60144B1A68FB68134454331B78DBB2EB
:10392000022B02D00023FB610EE00E4B1B68FA68ED
:10393000143253F822107A68D2431140FA681432D4
:1039400043F822100123FB61064B1A68FB681344FD
:10395000543300221A70FDF7A1FBFB69184620378B
:10396000BD4680BD24A2002004ED00E080B58EB0ED
:1039700000AFF860B9607A60FB7001237B63BB68BD
:10398000002B0AD04FF0500383F31188BFF36F8FE1
:10399000BFF34F8F3B6200BFFEE7FB68002B0AD1ED
:1039A0004FF0500383F31188BFF36F8FBFF34F8F36
:1039B000FB6100BFFEE7FB683B63FDF73FFB3B6C31
:1039C000002B06D03B6BBA68143253F822203B6CB4
:1039D0001A603A6BBB68134454331B7887F82F3056
:1039E0003A6BBB681344543302221A70FB78042BE1
:1039F0003BD801A252F823F0893A00080D3A00089A
:103A0000293A0008413A00084F3A00083B6BBA686F
:103A1000143253F822207B6842EA03013B6BBA68F8
:103A2000143243F8221032E03B6BBA68143253F878
:103A30002230591C3B6BBA68143243F8221026E03E
:103A40003B6BBA681432796843F822101FE097F88C
:103A50002F30022B06D03B6BBA681432796843F8DA
:103A6000221014E000237B6311E04D4B1B68002BF8
:103A70000CD04FF0500383F31188BFF36F8FBFF367
:103A80004F8FBB6100BFFEE700BF00E000BF97F8AB
:103A90002F30012B7DD13B6B5B69BB623B6B9B681D
:103AA0003A6BD2689A603B6BDB683A6B92685A60FB
:103AB000BB6A5A683B6B04339A4203D13B6BDA68AA
:103AC000BB6A5A603B6B00225A61BB6A1B685A1E74
:103AD000BB6A1A603B6BDB6A01229A40314B1B6860
:103AE0001343304A13603B6BDA6A2F4913469B003D
:103AF00013449B000B4404331B687B623B6B7A6A64
:103B00009A607B6A9A683B6BDA607B6A9B683A6B67
:103B100004325A603B6B1A1D7B6A9A603B6BDA6A0F
:103B200013469B0013449B001F4A1A443B6B5A6187
:103B30003B6BDA6A1C4913469B0013449B000B4401
:103B40001B683A6BD26A591C174813469B001344F2
:103B50009B00034419603B6B9B6A002B0AD04FF01B
:103B6000500383F31188BFF36F8FBFF34F8F7B61D7
:103B700000BFFEE70D4B1B68DA6A3B6BDB6A9A42BB
:103B800007D20B4B4FF080521A60BFF34F8FBFF339
:103B90006F8FFDF783FA7B6B18463837BD4680BDC3
:103BA00000A3002004A3002028A2002024A20020BB
:103BB00004ED00E080B592B000AFF860B9607A60C3
:103BC000FB7001237B64FB68002B0AD14FF050038C
:103BD00083F31188BFF36F8FBFF34F8FBB6200BFBA
:103BE000FEE7BB68002B0AD04FF0500383F3118827
:103BF000BFF36F8FBFF34F8F7B6200BFFEE7FDF710
:103C0000F0FAFB683B64EFF311824FF0500383F34B
:103C10001188BFF36F8FBFF34F8F3A62FB613B6A2E
:103C2000FB633B6D002B06D03B6CBA68143253F833
:103C300022203B6D1A603A6CBB68134454331B78E6
:103C400087F83B303A6CBB681344543302221A7035
:103C5000FB78042B3BD801A252F823F0ED3C00087E
:103C6000713C00088D3C0008A53C0008B33C0008EE
:103C70003B6CBA68143253F822207B6842EA030195
:103C80003B6CBA68143243F8221032E03B6CBA68DD
:103C9000143253F82230591C3B6CBA68143243F882
:103CA000221026E03B6CBA681432796843F822107F
:103CB0001FE097F83B30022B06D03B6CBA681432F9
:103CC000796843F8221014E000237B6411E0614B13
:103CD0001B68002B0CD04FF0500383F31188BFF307
:103CE0006F8FBFF34F8FBB6100BFFEE700BF00E0E7
:103CF00000BF97F83B30012B40F0A0803B6C9B6AE3
:103D0000002B0AD04FF0500383F31188BFF36F8F5D
:103D1000BFF34F8F7B6100BFFEE74F4B1B68002B4B
:103D200060D13B6C5B693B633B6C9B683A6CD268CF
:103D30009A603B6CDB683A6C92685A603B6B5A68DD
:103D40003B6C04339A4203D13B6CDA683B6B5A609C
:103D50003B6C00225A613B6B1B685A1E3B6B1A601E
:103D60003B6CDB6A01229A403C4B1B6813433B4A85
:103D700013603B6CDA6A3A4913469B0013449B007C
:103D80000B4404331B68FB623B6CFA6A9A60FB6A63
:103D90009A683B6CDA60FB6A9B683A6C04325A6042
:103DA0003B6C1A1DFB6A9A603B6CDA6A13469B00F7
:103DB00013449B002A4A1A443B6C5A613B6CDA6AF2
:103DC000274913469B0013449B000B441B683A6C25
:103DD000D26A591C224813469B0013449B0003449B
:103DE00019601BE01F4B5B687B633B6C7A6BDA618D
:103DF0007B6B9A683B6C1A627B6B9B683A6C1832DF
:103E00005A603B6C03F118027B6B9A603B6C154A5D
:103E10009A62144B1B680133124A13603B6CDA6AD6
:103E2000114B1B68DB6A9A4208D97B6D002B02D0CC
:103E30007B6D01221A600D4B01221A60FB6B3B6106
:103E40003B6983F3118800BF7B6C18464837BD4639
:103E500080BD00BF00A3002024A3002004A30020F5
:103E600028A20020BCA2002024A2002010A3002031
:103E700080B590B000AFF860B9607A60FB68002B45
:103E80000AD14FF0500383F31188BFF36F8FBFF354
:103E90004F8F7B6200BFFEE7BB68002B0AD04FF05C
:103EA000500383F31188BFF36F8FBFF34F8F3B62D3
:103EB00000BFFEE7FDF795F9FB68FB63EFF31182A6
:103EC0004FF0500383F31188BFF36F8FBFF34F8F11
:103ED000FA61BB61FB69BB63FA6BBB681344543383
:103EE0001B7887F83730FA6BBB68134454330222CF
:103EF0001A70FB6BBA68143253F82230591CFB6BF2
:103F0000BA68143243F8221097F83730012B40F08A
:103F1000A080FB6B9B6A002B0AD04FF0500383F309
:103F20001188BFF36F8FBFF34F8F7B6100BFFEE738
:103F30004D4B1B68002B60D1FB6B5B69FB62FB6B1D
:103F40009B68FA6BD2689A60FB6BDB68FA6B9268CD
:103F50005A60FB6A5A68FB6B04339A4203D1FB6BCD
:103F6000DA68FB6A5A60FB6B00225A61FB6A1B68C5
:103F70005A1EFB6A1A60FB6BDB6A01229A403B4BBC
:103F80001B681343394A1360FB6BDA6A38491346DE
:103F90009B0013449B000B4404331B68BB62FB6B08
:103FA000BA6A9A60BB6A9A68FB6BDA60BB6A9B6804
:103FB000FA6B04325A60FB6B1A1DBB6A9A60FB6B8A
:103FC000DA6A13469B0013449B00294A1A44FB6B90
:103FD0005A61FB6BDA6A264913469B0013449B0027
:103FE0000B441B68FA6BD26A591C214813469B008C
:103FF00013449B00034419601BE01E4B5B683B634A
:10400000FB6B3A6BDA613B6B9A68FB6B1A623B6B3A
:104010009B68FA6B18325A60FB6B03F118023B6B1A
:104020009A60FB6B134A9A62124B1B680133114A68
:104030001360FB6BDA6A104B1B68DB6A9A4208D983
:104040007B68002B02D07B6801221A600B4B012297
:104050001A60BB6B3B613B6983F3118800BF00BFF3
:104060004037BD4680BD00BF24A3002004A300202C
:1040700028A20020BCA2002024A2002010A300201F
:1040800080B586B000AF786039603B68002B0AD0FD
:104090004FF0500383F31188BFF36F8FBFF34F8F3F
:1040A000FB6000BFFEE77B68002B02D1174B1B684B
:1040B00000E07B683B613B69002B0AD14FF0500365
:1040C00083F31188BFF36F8FBFF34F8FBB6000BFC7
:1040D000FEE7FCF7B3FF3A693B68134454331B789F
:1040E000DBB2022B08D13A693B68134454330022F7
:1040F0001A7001237B6101E000237B61FCF7CEFF96
:104100007B6918461837BD4680BD00BF24A2002039
:1041100080B588B000AFF860B9607A60BB68002BEA
:104120000AD04FF0500383F31188BFF36F8FBFF3B2
:104130004F8F7B6100BFFEE7FB68002B02D1184B5D
:104140001B6800E0FB68FB61FB69002B0AD14FF0A4
:10415000500383F31188BFF36F8FBFF34F8F3B6121
:1041600000BFFEE7FCF76AFFFB69BA68143253F838
:104170002230BB61FB69BA68143253F822207B6895
:10418000DB4302EA0301FB69BA68143243F82210E8
:10419000FCF784FFBB6918462037BD4680BD00BFD1
:1041A00024A2002080B588B000AF78603960374B1A
:1041B0001B68FB61364B1B68BB61364B1B687B6120
:1041C000354B1B6804331846FCF726FD0346002BCD
:1041D0000BD1314B1B68DB6A012202FA03F3DA438D
:1041E0002E4B1B6813402D4A13607B68B3F1FF3FD1
:1041F00024D13B68002B21D0294B5B683B61264BC7
:104200001B683A699A60244B1B683A699268DA60C5
:10421000214B1A683B699B6804325A601E4B1B682D
:104220001A1D3B699A601C4B1B681D4A5A611C4B46
:104230001B6801331A4A136000BF22E0FA697B68E9
:104240001344FB60144B1B68FA685A60FA68FB69F8
:104250009A4207D2104B1B68043319467869FCF761
:10426000A2FC0EE00C4B1B6804331946B869FCF73E
:104270009AFC0C4B1B68FA689A4202D2094AFB6806
:10428000136000BF2037BD4680BD00BF00A30020E3
:10429000B4A20020B8A2002024A2002004A3002081
:1042A000E8A200201CA3002080B483B000AF1A4B0A
:1042B00000221A60194B00221A60194B00221A6062
:1042C000184B00221A60184B00221A60174B00226C
:1042D0001A60174B00221A6000237B6007E0154A22
:1042E0007B68002142F823107B6801337B607B6888
:1042F000002BF4DD104B00221A60104B00221A60D4
:104300000F4B00221A600F4B00221A6000BF0C37BF
:10431000BD465DF8047B704724A20020E4A2002083
:10432000FCA2002000A3002004A3002008A300207A
:104330000CA3002010A3002014A3002018A3002029
:104340001CA3002024A3002080B483B000AF034648
:10435000FB80084B00221A8000BF064B1B88FA889E
:104360009A42FAD800BF00BF0C37BD465DF8047B07
:10437000704700BF28A3002080B483B000AF0A4B71
:104380001B8801339AB2084B1A80084B7B607B680C
:104390001B8823F001039AB27B681A8000BF0C3798
:1043A000BD465DF8047B704728A300201000014043
:1043B00080B586B000AF0020FBF78EFF144B7B6109
:1043C000144B3B61144BFB60144BBB60144B7B6084
:1043D0007B6943F67F621A80FB684FF47A721A8019
:1043E000BB681B8843F001039AB2BB681A807B68E4
:1043F0001B6843F000727B681A603B691B8843F0BE
:1044000001039AB23B691A8000BF1837BD4680BDD0
:1044100028000140000001402C0001400C00014038
:1044200000E100E080B485B000AF78600023FB605D
:1044300002E0FB680133FB607A68FB6813441B7879
:10444000002BF6D1FB6818461437BD465DF8047B97
:10445000704780B584B000AF78607868FFF7E2FFFE
:10446000B8600023FB6009E0FB687A6813441B789E
:10447000184600F00CF8FB680133FB60FB68BA6873
:104480009A42F1D800BF00BF1037BD4680BD80B44E
:1044900085B000AF0346FB710A4BFB600A4BBB6063
:1044A000BB68FA791A7000BFFB681B68DB0903F070
:1044B0000103002BF8D000BF00BF1437BD465DF8E4
:1044C000047B7047001001400410014080B584B0A7
:1044D00000AF0120FBF7B8FE214BFB60214BBB6016
:1044E000FB681B6823F47042FB681A60FB681B685A
:1044F00043F42042FB681A60BB681B6823F07F42CC
:10450000BB681A60BB681B6843F0EE42BB681A6068
:104510000420FBF7E1FE144B7B60144B3B607B688F
:104520001B6843F480527B681A607B681B6843F405
:1045300080627B681A607B681B6843F00C027B68B2
:104540001A603B6840F283621A607B681B6843F420
:1045500000527B681A6000BF1037BD4680BD00BFA7
:1045600000040240200402400C10014008100140E9
:1045700070B50D4E0D4D761BB61006D0002455F8C3
:10458000043B01349847A642F9D1094E094D761BE8
:1045900004F004FDB61006D0002455F8043B0134A5
:1045A0009847A642F9D170BDF8930008F893000827
:1045B000FC930008F8930008844641EA000313F0D6
:1045C00003036DD1403A41D351F8043B40F8043B1A
:1045D00051F8043B40F8043B51F8043B40F8043BDD
:1045E00051F8043B40F8043B51F8043B40F8043BCD
:1045F00051F8043B40F8043B51F8043B40F8043BBD
:1046000051F8043B40F8043B51F8043B40F8043BAC
:1046100051F8043B40F8043B51F8043B40F8043B9C
:1046200051F8043B40F8043B51F8043B40F8043B8C
:1046300051F8043B40F8043B51F8043B40F8043B7C
:1046400051F8043B40F8043B403ABDD2303211D31C
:1046500051F8043B40F8043B51F8043B40F8043B5C
:1046600051F8043B40F8043B51F8043B40F8043B4C
:10467000103AEDD20C3205D351F8043B40F8043B1C
:10468000043AF9D2043208D0D2071CBF11F8013B1A
:1046900000F8013B01D30B8803806046704700BFE0
:1046A000082A13D38B078DD010F003038AD0C3F1EF
:1046B0000403D21ADB071CBF11F8013B00F8013BD1
:1046C00080D331F8023B20F8023B7BE7043AD9D390
:1046D000013A11F8013B00F8013BF9D20B78037065
:1046E0004B7843708B78837060467047830730B592
:1046F00048D0541E002A3FD0CAB2034601E0013C14
:104700003AD303F8012B9D07F9D1032C2DD9CDB253
:1047100045EA05250F2C45EA054536D9A4F11002D6
:1047200022F00F0C03F1200EE6444FEA121C03F1B5
:10473000100242E9045542E9025510327245F8D19F
:104740000CF1010214F00C0F03EB021204F00F0C39
:1047500013D0ACF1040323F003030433134442F8F1
:10476000045B9342FBD10CF003042CB1CAB21C448D
:1047700003F8012B9C42FBD130BD64461346002C4C
:10478000F4D1F9E703461446BFE71A46A446E0E72A
:104790002DE9F04757EC106B84B0002F0C46DDE993
:1047A0000CA9904619465FDB0025B9F1660F0D7024
:1047B0001AD0B9F1460F17D029F02003452B36D077
:1047C00003AA019202AA009247EC106B53462246BC
:1047D000022100F039FEB9F1670F054634D118F017
:1047E000010F34D1039B1BE003AB019302AB009399
:1047F00047EC106B53462246032100F025FE054688
:1048000000EB04082B78302B33D0DAF80040444416
:10481000304639460022002304F0D6FAC8B12346B8
:104820000E9A5B1B2846136004B0BDE8F08703AA0C
:104830000192013402AA009247EC106B53462246C3
:10484000022100F001FE0546B9F1470FC7D02C4404
:10485000DEE7039B9C42E3D930215A1C0392197076
:10486000039BA342F9D3DBE707F100432D251F4645
:104870009BE7002200233046394604F0A5FA0028C1
:10488000C3D1C4F10104CAF80040C0E7F0B5002963
:1048900083B002703FDB841C2B230929437030DD79
:1048A0000DF107051F4FAC4687FB0132CB17C3EB59
:1048B000A20303EB8302A1EB42020E463032632EC9
:1048C000E6460CF8012C19460CF1FF3CECDC3031CB
:1048D000AEF10203C9B29D420CF8011C1FD9634618
:1048E000224601E013F8011B02F8011BAB42F9D18B
:1048F0000DF10903A3EB0E0EA644AEEB000003B0CE
:10490000F0BD3023A64619440EF8023B6170AEEBB1
:10491000000003B0F0BD4942841C2D23BDE7A6462C
:10492000F5E700BF676666662DE9F04F2DED028B57
:104930008DB00C46DDF8608016461F46054601F036
:1049400043FD0368184608EE103A00F079FC002396
:104950000A93D8F800300790073323F0070303F1D8
:104960000802D4F800B094F818A0C8F80020D3E9E1
:10497000008929F000430593CDF81080C4E912891D
:10498000DDE90401A74B4FF0FF3204F04FFA48B9BC
:10499000DDE90401A34B4FF0FF3204F029FA0028AF
:1049A00000F0928042464B464046494604F03EFAAB
:1049B000002840F0348261684B1C2DD0BAF1670F9B
:1049C00068D0BAF1470F65D04BF4806200232260B3
:1049D00003930AAB029309AB49EC108B0093CDF81B
:1049E00004A00DF123032846FFF7D2FE8046BAF15A
:1049F000650F099934D80139524604F150000991E4
:104A0000FFF744FF0A9A1318012A8146236140F3F5
:104A10007E810133236135E0062161604BF48062C1
:104A20000023226003930AAB029309AB49EC108B7D
:104A30000093CDF804A00DF123032846FFF7A8FE4C
:104A40000AF0DF03472B8046D1D10999C81C80F2B8
:104A5000FE80AAF1020A5FFA8AFABAF1650FCAD992
:104A6000BAF1660F00F0FA800A9B8B4240F3018195
:104A70000029D4BFC1F10202012213442361A165C0
:104A80004FF000099DF82330002B35D02D2384F8FA
:104A9000433031E0002900F023814BF48062002391
:104AA000226003930AAB029309AB49EC108B00938D
:104AB000CDF804A00DF123032846FFF769FE0999FC
:104AC0008046C81CC5DBC2E04046494600220023A0
:104AD00004F084F910B12D2384F84330524B53482D
:104AE0002BF00402BAF1470F94BF98468046032387
:104AF000226023614FF00009009733460BAA21463C
:104B0000284600F0ABF9013025D02368580531D490
:104B10002369424631462846B84701301BD02368F6
:104B2000E06813F0020F0B9B1CD0C21A002A19DD9B
:104B300004F119094FF0000804E0E0680B9BC21A69
:104B400042450FDD01234A4631462846B847013029
:104B500008F10108F1D14FF0FF300DB0BDEC028B30
:104B6000BDE8F08F9842B8BF18460DB0BDEC028B7F
:104B7000BDE8F08FBAF1650F32D9D4E912010022F5
:104B8000002304F021F900287BD0294A0123314673
:104B90002846B8470130DED0DDE909239A4202DB1E
:104BA0002368D907BCD5079B18EE102A3146284642
:104BB000B8470130CFD00A9B012BB0DD04F11A09B0
:104BC0004FF0000803E00A9B013B4345A7DD0123AA
:104BD0004A46314628469844B8470130F3D1BAE7EF
:104BE0000A9A012A7FDD0123424631462846B8470A
:104BF0000130B0D0079B18EE102A31462846B8473E
:104C00000130A8D0D4E912010022002304F0DCF81E
:104C1000002877D00A9B012B70DD04F11A0A4FF0AF
:104C200000080BE0FFFFEF7FB4920008B892000885
:104C3000C49200080A9B013B43455FDD01235246B5
:104C4000314628469844B8470130F3D183E763687A
:104C500099423FF7FEAE4FF0670A05E700295BDD9A
:104C600063682161002B00F0898001330B442361CC
:104C700005E723682161DB077FF501AF4B1C23614A
:104C8000FDE6099B002B4FDD0A9BD4F858A0534545
:104C9000A8BF5346002B9B4608DD424631462846B6
:104CA000B84701303FF457AFD4F858A02BEAEB7B5C
:104CB000AAEB0B03002B6EDD04F11A024FF0000982
:104CC000924604E0A36DA3EB0B024A4562DD01238B
:104CD0005246314628469944B8470130F2D13AE766
:104CE000012161609AE6DB073FF57DAF4246012373
:104CF00031462846B84701303FF42DAF4B4604F10A
:104D0000500207E70A9B08F10102013BF0E7226825
:104D1000D2077FF5B7AE7CE66368002B33D12268FB
:104D2000D20730D40123A9E6494A01233146284657
:104D3000B84701303FF40FAFDDE90923134324D016
:104D4000079B18EE102A31462846B84701303FF439
:104D500002AF099B002B77DA04F11A0A4FF0000921
:104D600003E0099B5B424B456EDD01235246314611
:104D700028469944B8470130F3D1ECE62268D007C1
:104D80007FF57DAE71E7023378E62368DA077FF5B9
:104D9000C7AED5E79A46DDE909218A4202DB2368DE
:104DA000D8070AD5079B18EE102A31462846B8477F
:104DB00001303FF4D0AEDDE90921A1EB0A098A1ADE
:104DC0009145A8BF9146B9F1000F0BDD08EB0A022F
:104DD0004B4631462846B84701303FF4BCAEDDE9CA
:104DE0000932D21A29EAE979A2EB0903002B7FF7ED
:104DF00096AE04F11A0A4FF0000807E0DDE9092336
:104E00009B1AA3EB090343457FF789AE0123524662
:104E1000314628469844B8470130EFD19BE64B46CF
:104E2000002BBCBF2D2384F843302BF00403094A28
:104E30002360094BBAF1470F94BF9046984603236D
:104E400023614FF0000957E60A9B424662E600BF25
:104E5000C4920008BC920008C09200082DE9F84FE7
:104E600092461F460A698B68DDF828909A42B8BFBF
:104E70001A46CAF8002091F843300C46064613B192
:104E80000132CAF80020226891065DD5DAF80030B8
:104E90000233CAF80030226812F0060F11461ED104
:104EA000E168CB1A002BD8BF114618DD04F1190BAD
:104EB0004FF0000805E0E568DAF80030ED1A4545E6
:104EC0000CDD01235A4639463046C847013008F107
:104ED0000108F0D14FF0FF30BDE8F88F216894F859
:104EE0004330003B18BF01238A060AD5E1185A1C3B
:104EF000302081F84300224494F8451082F8431092
:104F0000023304F1430239463046C8470130E1D04C
:104F1000236803F00603042B1DD0A3682269934283
:104F200025DD4FF000089B1A98441A34002501E053
:104F300045451CDA0123224639463046C847013030
:104F400005F10105F4D1C5E712F0060F12D0003BC0
:104F500018BF0123D5E7DAF80030E1682269C91AE1
:104F6000A368934221EAE178DDDC0029DDDC002042
:104F7000BDE8F88FE168DAF80030CB1A002BD8BF13
:104F8000114693DCABE700BF2DE9F0470C4684B037
:104F90009046227E0C990746994604F14300002A68
:104FA00033D0A2F15803DDB2202D67D8202B65D86D
:104FB000DFE813F0DE006400640064006400640055
:104FC00064006400640064006400A3006E00640078
:104FD0006400640064006E006400640064006400A7
:104FE00021007F00C00064006400AE0064007F0008
:104FF00064006400E50023681A0640F104810B6830
:1050000062691D1D0D601B681A60002382462361C2
:10501000CDF80090434603AA21463846FFF71EFF0D
:10502000013020D02369524641463846C8470130F6
:1050300019D02368E068039E9B0719D5831B002BBA
:1050400016DD04F1190A002504E0E068039E831BC5
:10505000AB420DDD0123524641463846C847013078
:1050600005F10105F1D14FF0FF3004B0BDE8F08744
:10507000B042B8BF304604B0BDE8F087012384F8E1
:105080004220236104F1420A002384F84330BFE741
:1050900023681A0602D45E0600F1C1800D682A68F2
:1050A00004350D601546002A6BDBDFF884C10A2643
:1050B00010E023681D0640F19C800B681D1D0D60EB
:1050C0001D68DFF86CC16F2A0CBF08260A26002372
:1050D00084F843306268A260002A7FDB236823F0F3
:1050E00004032360002D5BD1002A79D18246082E6B
:1050F00065D0A0EB0A0020618AE70B6801221868DE
:1051000004330B6004F1420A84F842002261BBE7D9
:105110000B686268181D0860D3F800A00021504693
:1051200001F06EF9002800F08180A0EB0A006060B9
:105130002061A9E7236843F0200323607822DFF889
:10514000F4C084F845200A68151D0D601D0643D47F
:10515000590641D51588DE0744BF43F0200323607C
:10516000002D44D1236823F0200323601026AEE7EE
:10517000582384F84530DFF8B8C02368E3E7236894
:10518000DCE76268A2602D21002AC5F1000584F8E1
:10519000431002DB23F004032360DFF894C00A26E7
:1051A0008246B5FBF6F306FB13512A461CF80110A4
:1051B0000AF8011DB2421D46F3D2082E99D1236888
:1051C000D90796D5626823699A4292DC30230AF89F
:1051D000013C0AF1FF3A8CE71568BCE7002DDFD1EE
:1051E0009CF8003084F8423004F1420A7FE7102630
:1051F0006DE713F0400F0B6803F104050D600CBF61
:105200001D681D885DE713F0400F0B68626903F1AC
:1052100004050D601B6814BF1A801A60F5E60A6861
:10522000B2F9005004320A602A463CE760687FE722
:10523000C8920008DC920008000000000000000096
:1052400090F800F06DE9024520F007016FF0000CC6
:1052500010F0070491F820F040F049804FF000046E
:105260006FF00700D1E9002391F840F000F1080049
:1052700082FA4CF2A4FA8CF283FA4CF3A2FA8CF381
:105280004BBBD1E9022382FA4CF200F10800A4FAE8
:105290008CF283FA4CF3A2FA8CF3E3B9D1E904233C
:1052A00082FA4CF200F10800A4FA8CF283FA4CF373
:1052B000A2FA8CF37BB9D1E9062301F1200182FA2D
:1052C0004CF200F10800A4FA8CF283FA4CF3A2FA33
:1052D0008CF3002BC6D0002A04BF04301A4612BA41
:1052E000B2FA82F2FDE8024500EBD2007047D1E944
:1052F000002304F00305C4F100004FEAC50514F0D3
:10530000040F91F840F00CFA05F562EA05021CBFA3
:1053100063EA050362464FF00004A9E700000000BD
:105320002DE9F04F03690C69A34283B0C0F2878076
:10533000013C01F11405A30000F11408009355F895
:10534000243058F82420013381469A4208EB840027
:1053500005EB84070190B2FBF3F63BD30023AE4686
:1053600040469B465EF804AB02681FFA8AFC06FBC7
:105370000C334FEA134C4FEA1A4A06FB0ACA1FFACB
:1053800083FCABEB0C0C1FFA8AF31CFA82FCC3EB18
:10539000124202EB2C421FFA8CFC4CEA0243774586
:1053A00040F8043B4FEA224B4FEA1A43DAD2009B03
:1053B00058F8033073B9019B043B984504D307E0C8
:1053C000984504F1FF3403D253F80429002AF7D09A
:1053D000C9F81040484601F06BFB00282BDB013672
:1053E0004046002355F8041BD0F800C08AB29A1A30
:1053F0000B0C12FA8CF2C3EB1C4303EB224392B268
:1054000042EA0342AF4240F8042B4FEA2343E9D279
:1054100058F8242008EB84036AB9043B984504D368
:1054200007E0984504F1FF3403D253F80429002A19
:10543000F7D0C9F81040304603B0BDE8F08F002027
:1054400003B0BDE8F08F00BF2DE9F04F2DED068BC6
:10545000466A95B08DED020B249C019159EC108B9E
:10546000054609920693002E00F00683316849B183
:1054700072684A60012393408B6001F051F86B6AB7
:1054800000221A60B9F1000AB4BF0123002323608F
:105490007B4BBCBF2AF0004ACDF80CA033EA0A03CC
:1054A00000F0B2809DED027B002251EC170BB0EEB4
:1054B000479AF0EE679A002303F086FC074680B116
:1054C000069A01231360259B002B00F0EF826D48A4
:1054D0001860431E0093009815B0BDEC068BBDE824
:1054E000F08F12AA13A92846B0EE490AF0EE690A15
:1054F00001F036FCB0EE498AF0EE698A5FEA1A568E
:10550000044640F09980DDE912763E4406F23240CE
:10551000202840F3BF83C0F140000AFA00FA06F2E7
:10552000124028FA00F04AEA000003F06BF9012368
:10553000013E0D93A1F1F871534B002203F024F8C2
:1055400049A3D3E9002303F0D7F949A3D3E9002302
:1055500003F01CF880463046894603F063F946A301
:10556000D3E9002303F0C8F902460B4640464946FA
:1055700003F00CF88046894603F06EFC0022834657
:1055800000234046494603F029FC002840F0818270
:10559000BBF1160F00F263823C4B03EBCB03D3E964
:1055A000002351EC190B03F019FC002874D00023E0
:1055B000BE1B0C93731E0BF1FF3B049300F156824C
:1055C00000230893BBF1000F6DDA089BCDF814B0EF
:1055D000A3EB0B030893CBF100030B93019B092B67
:1055E0004FF0000B68D8052B40F35283043B019326
:1055F0000026019B023B032B00F2AC86DFE813F090
:10560000650462045A043C04069A42F20F73CAF31A
:10561000130A13605AEA08031DD1259B002B00F0E2
:1056200095861B4B00930833259A0098136015B09C
:10563000BDEC068BBDE8F08F18EE903AC3F3130370
:1056400051EC190B43F07F510D97A6F2FF36129FD4
:1056500041F4401170E7259B002B40F0F0830D4B87
:10566000009338E7AFF3008061436F63A787D23FB1
:10567000B3C8608B288AC63FFB799F501344D33F41
:105680000000F07FC59200080000F83F3890000845
:10569000F0920008FC920008BE1B731E049300F1F8
:1056A000D9840C900890049B5B44CDE9043B002313
:1056B0000B93019B092B96D9002301264FF0FF3253
:1056C00001930A96079209936B6A00215960079B20
:1056D0000F93284600F0E4FE0090002800F0438677
:1056E0006B6A009A1A60079B0E2B00F2F980002E5D
:1056F00000F0F6800599002940F38084BD4B01F04D
:105700000F0203EBC2034FEA2118C905D3E9006772
:1057100040F11384B84B51EC190BD3E9082303F083
:1057200015FA41EC180B08F00F084FF0030AB8F116
:10573000000F13D0DFF8C09218F0010F09D03046E7
:105740003946D9E9002303F0D7F80AF1010A0646E1
:105750000F465FEA680809F10809EDD151EC180B12
:1057600032463B4603F0F2F941EC1A0B0C9B5BB15D
:1057700057EC1A6BA14B1AEE100A0022394603F0BF
:105780002DFB002840F06C85504603F04BF853EC9D
:105790001A2B03F0B1F89A4B002202F0F7FE079B98
:1057A0008046A1F15079002B00F00484059B1093F2
:1057B000079B0E930A9B002B00F0D6840E9A8D4B0C
:1057C0009049DDF800A003EBC20353E90223002057
:1057D00003F0BCF942464B4602F0D6FE59EC1A8B58
:1057E00041EC180B49461AEE100A03F035FB074648
:1057F00003F018F802460B461AEE100A494602F06A
:10580000C3FE30370AF8017B53EC182B06460F46CF
:1058100003F0E4FA002840F067854FF000080AEE34
:10582000104A0AEE905ACDF844B0554644465BEC17
:1058300018AB2AE00E9B01349C424BDA724B504667
:105840005946002203F058F86F4B002282468B46DF
:105850003046394603F050F88946804603F0FCFA9A
:10586000074602F0DFFF02460B464046494602F07B
:105870008BFE303705F8017B52465B4606460F46E5
:1058800003F0ACFA002840F02A8532463B465B49DB
:10589000002002F079FE52465B4603F09FFA002892
:1058A000C8D0109B009A0593AA461AEE104A1AEE29
:1058B000905A02E0524500F0FC84D1461AF8013DAE
:1058C000392BF7D00133DBB28AF80030059B013366
:1058D0000593BEE1DDF844B01AEE104A1AEE905A74
:1058E000139B002BC0F29480059A0E2A00F390803F
:1058F000404B03EBC203D3E90089099B002B1BDA61
:10590000079B002B18DC40F06E83404B0022404682
:10591000494602F0F1FF02460B4651EC190B03F029
:1059200067FADDF81CA05646002800F0E682099BC5
:10593000DDF80080DF43E8E242464B4651EC190BAC
:1059400003F004F903F088FA0646834602F06AFF82
:1059500042464B4602F0D0FF0B46024651EC190B73
:1059600002F012FEDDF800A0334630330AF8013BA6
:10597000079B012B00F09F834FF0010B08EE104AAC
:1059800008EE905A54461D46DA461DE042464B4604
:105990003046394603F0DAF803F05EFA834602F047
:1059A00041FF42464B4602F0A7FF0AF1010A0B46AF
:1059B00002463946304602F0E7FD0BF13003AA45B6
:1059C00004F8013B00F072830F4B002202F094FFB9
:1059D0000022002306460F4603F0F6F90028D5D032
:1059E000A24618EE905A18EE104A059B0133059313
:1059F000D1462EE138900008289100080000F03FC1
:105A000000001C400000E03F000024400000144063
:105A10000A9A002A52D0019A012A40F3A682079BD3
:105A200003F1FF380B9B434580F284820B9BCDF83A
:105A30002C80A8EB03039B444FF00008079B002B2E
:105A4000C0F27183049A1A440492089A17461A44C1
:105A500008920121284600F083FE064632E0012329
:105A6000BE1B0C93731E04937FF5AAADC6F1010310
:105A7000089300230493A5E5102000F0ADFC024636
:105A80006862002800F05D84C0E901660660C660B7
:105A9000F8E4584602F0C6FE42464B4603F094F93D
:105AA00000287FF475AD0BF1FF3B71E5874B009348
:105AB000009815B0BDEC068BBDE8F08FDDF82C80AA
:105AC000089F0A9E002F0CDD049A002A09DD089920
:105AD000BA421346A8BF3B46C91AFF1AD31A089107
:105AE00004930B9BDBB10A9B002B00F08082B8F182
:105AF000000F0FDD31464246284600F0F5FE2246F3
